:1000000094EF00F0196A19500708D8A019EF00F012
:1000100018BE0EEF00F08D940FEF00F08D849694D3
:1000200096908D9096908D80D8901836192A03EF6F
:1000300000F0120015C016F014C017F016C018F02A
:10004000E1DF17C018F0DEDF1200156A146AF2DF74
:10005000156A146AEFDF156A146AECDF156A146A10
:10006000E9DF95968C8695968C9695988C889598D0
:100070008C98959A8C8A959A8C9A959E8C8E959E42
:100080008C9E95948C8495948C9415681468D2DF1A
:1000900015681468CFDF959C8C8C959C8C9C5DEFCB
:1000A00000F0FF0E926E3C0E936EF10E946E000EF9
:1000B000966E956E956A8C6AC8D7F19E056A046A39
:1000C000C050C00B0209C06EC08EC280C150C00BB0
:1000D0000C09C16E95908C90B3EF00F014C018F02D
:1000E00091DF15C018F08EDF16C018F08BDF17C037
:1000F00018F088DF95988C8895988C98BAEF00F066
:10010000EA6A140EE96EEF500DE0060E016E006A09
:10011000002EFED7012EFBD77B0E006E002EFED7E1
:10012000EF2EF3D7BDEF00F0F86AD09EB886080E28
:10013000AF6E020EB06EA60EAC6E900EAB6E066A7F
:10014000076A086A096A126AC150C00B0F09C16EBA
:10015000070EB46E0A680B680C680D680E680F68AD
:10016000106811689ED7136A146A156A166A13C05C
:1001700017F0B4D7C80E146EC3D7131EF5D70300FB
:020000040030CA
:0E00000027CC3E1E0087A1000FC00FE00F406E
:00000001FF
;PIC18F4550
;CRC=302C  CREATED="31-Aug-23 13:39"
