:0400000059EF05F0BF
:08000800046ED8CF05F0E0CF33
:1000100006F00001E9CF0CF0EACF07F0E1CF08F0DD
:10002000E2CF09F0D9CF0AF0DACF0BF0F3CF12F01C
:10003000F4CF13F0FACF14F0F5CF15F0F6CF16F099
:10004000F7CF17F000C00EF001C00FF002C010F0A3
:1000500003C011F0A0A230EF00F0A1B26AEF00F0EF
:100060000EC000F00FC001F010C002F011C003F08C
:100070000CC0E9FF07C0EAFF078E08C0E1FF09C016
:10008000E2FF0AC0D9FF0BC0DAFF12C0F3FF13C0B2
:10009000F4FF14C0FAFF15C0F5FF16C0F6FF17C035
:1000A000F7FF045006C0E0FF05C0D8FF1000EA6A61
:1000B000550EE96EEF500DE0060E016E006A002E3F
:1000C000FED7012EFBD77B0E006E002EFED7EF2E43
:1000D000F3D71200938A81BA14D0140E556EE7DF5D
:1000E000938A81BA0ED0292AD8B42A2A29500B081B
:1000F00005E12A5203E12A6A010E296E938A81AA38
:10010000FDD7938881B814D0140E556ED0DF938834
:1001100081B80ED02950D8B42A062906295205E103
:100120002A5203E12A6A0A0E296E938A81AAFDD710
:10013000938681B603D02A6A010E296E0B0EB36E28
:10014000DC0EB26E0000A19230EF00F0546A545001
:1001500007080EE353BE02D08D9401D08D8496948F
:1001600096908D9096908D80D8905336542AEFD7E4
:10017000120040C041F03FC042F041C053F0E6DF02
:1001800042C053F0E3DF1200406A3F6AF2DF406A88
:100190003F6AEFDF406A3F6AECDF406A3F6AE9DFAF
:1001A00095968C8695968C9695988C8895988C9833
:1001B000959A8C8A959A8C9A959E8C8E959E8C9EFB
:1001C00095948C8495948C9440683F68D2DF406805
:1001D0003F68CFDF959C8C8C959C8C9CFCEF00F04D
:1001E000FF0E926E3C0E936EF10E946E000E966EA4
:1001F000956E956A8C6AC8D7F19E1B6A1A6AC050C0
:10020000C00B0209C06EC08EC280C150C00B0C0969
:10021000C16E95908C907DEF05F04FC053F096DF46
:1002200050C053F093DF51C053F090DF52C053F0F1
:100230008DDF95988C8895988C981200326A316A77
:10024000306A2F6A325231E131522FE130522DE1C2
:100250002F5009082AE34F68506A516A5268DDDF5F
:10026000196AF2BE198EF29E6E0E556E20DF19BE0F
:10027000F28E4F6A50685168526ACFDF196AF2BE37
:10028000198EF29E6E0E556E12DF19BEF28E010EA1
:100290002F26D8B0302AD8B4312AD8B4322A292C03
:1002A00002D02A52D8A401D0CDD7D6EF05F0326AB9
:1002B000316A306A2F6A32523DE131523BE13052AD
:1002C00039E12F50200836E3E00E2E6E2D6A2C6A9D
:1002D0002B6A2F503F6E07E0D8902E322D322C32F1
:1002E0002B323F2EF9D7416A426A436A476A486A0D
:1002F0004D6A2EC04FF02DC050F02CC051F02BC0D5
:1003000052F08BDF196AF2BE198EF29E320E556ED4
:10031000CEDE19BEF28E2950020802E12A52D8A47C
:1003200009D0010E2F26D8B0302AD8B4312AD8B43B
:10033000322AC1D7D6EF05F0326A316A306A2F6AA5
:1003400032523DE131523BE1305239E12F50200829
:1003500036E32E6A2D6A2C6A070E2B6E2F503F6EE5
:1003600007E0D8902B362C362D362E363F2EF9D777
:10037000416A426A436A476A486A4D6A2EC04FF032
:100380002DC050F02CC051F02BC052F046DF196A3E
:10039000F2BE198EF29E320E556E89DE19BEF28EB5
:1003A0002950030802E12A52D8A409D0010E2F26B1
:1003B000D8B0302AD8B4312AD8B4322AC1D7D6EF2F
:1003C00005F02E6A2D6A2C6A2B6A326A316A306A0D
:1003D0002F6A32522CE131522AE1305228E12F505B
:1003E000090825E32BC04FF02BC050F02BC051F073
:1003F0002BC052F012DF196AF2BE198EF29EC80E9F
:10040000556E55DE19BEF28E2B1E2C1E2D1E2E1E75
:10041000010E2F26D8B0302AD8B4312AD8B4322AC7
:100420002950040802E12A52D8A401D0D2D7D6EF2D
:1004300005F03E6A3D6A3C6A3B6A366A356A346A50
:10044000336A365266E1355264E1345262E1335028
:100450001F085FE33A6A396A386A010E376E36C0A0
:1004600032F035C031F034C030F033C02FF03252AA
:100470003FE131523DE130523BE12F501F0838E35C
:1004800037503B102B6E38503C102C6E39503D10BD
:100490002D6E3A503E102E6E416A426A436A476A98
:1004A000486A4D6A2EC04FF02DC050F02CC051F05C
:1004B0002BC052F0B2DE196AF2BE198EF29E0A0EFD
:1004C000556EF5DD19BEF28ED8903736383639368E
:1004D0003A362950050802E12A52D8A409D0010E63
:1004E0002F26D8B0302AD8B4312AD8B4322ABFD770
:1004F0002EC03EF02DC03DF02CC03CF02BC03BF098
:10050000010E3326D8B0342AD8B4352AD8B4362AC6
:1005100098D7D6EF05F02E6A2D682C682B68416AB3
:10052000426A436A476A486A4D6A2EC04FF02DC03E
:1005300050F02CC051F02BC052F06FDE196AF2BEA1
:10054000198EF29E640E556EB2DD19BEF28E3E68B3
:100550003D683C68FE0E3B6E3EC02EF03DC02DF067
:100560003CC02CF03BC02BF0326A316A306A2F6AF3
:100570003252D8A47ED03152D8A47BD03052D8A4E5
:1005800078D02F501F08D8A074D03A6A396A386AD8
:10059000010E376E2F503F6E07E0D8903736383651
:1005A00039363A363F2EF9D7366A356A346A336AB5
:1005B000010E2F24006E000E3020016E000E31203F
:1005C000026E000E3220036E3650035C44E30BE1F2
:1005D0003550025C40E307E13450015C3CE303E149
:1005E0000050335C38E2D8903A3239323832373200
:1005F00037503B102B6E38503C102C6E39503D104C
:100600002D6E3A503E102E6E416A426A436A476A26
:10061000486A4D6A2EC04FF02DC050F02CC051F0EA
:100620002BC052F0FADD196AF2BE198EF29E0A0E44
:10063000556E3DDD19BEF28E2950060802E12A52A0
:10064000D8A409D0010E3326D8B0342AD8B4352A1C
:10065000D8B4362AADD7D8903B363C363D363E36F8
:10066000010E2F26D8B0302AD8B4312AD8B4322A75
:100670007FD7D6EF05F0326A316A306A2F6A32527C
:1006800043E1315241E130523FE12F501F083CE33A
:10069000416A426A436A476A486A4D6A2EC04FF00F
:1006A0002DC050F02CC051F02BC052F0B6DD196AAD
:1006B000F2BE198EF29E1E0E556EF9DC19BEF28E38
:1006C000D8902B34406E2C34416E2D34426E2E3433
:1006D000436E010E40242B6E000E41202C6E000E46
:1006E00042202D6E000E43202E6E2950070802E195
:1006F0002A52D8A409D0010E2F26D8B0302AD8B457
:10070000312AD8B4322ABBD7326A316A306A2F6AAA
:10071000325233E1315231E130522FE12F501F0874
:100720002CE3416A426A436A476A486A4D6A2EC0AE
:100730004FF02DC050F02CC051F02BC052F06DDDA9
:10074000196AF2BE198EF29E1E0E556EB0DC19BEED
:10075000F28ED8902B362C362D362E36295007089F
:1007600002E12A52D8A409D0010E2F26D8B0302A8F
:10077000D8B4312AD8B4322ACBD7D6EF05F0326AB2
:10078000316A306A2F6A32523EE131523CE13052D6
:100790003AE12F501F0837E3416A426A436A476AC9
:1007A000486A4D6A2EC04FF02DC050F02CC051F059
:1007B0002BC052F032DD196AF2BE198EF29E1E0E67
:1007C000556E75DC19BEF28ED8902E30436E2D30EA
:1007D000426E2C30416E2B302B6E41C02CF042C04B
:1007E0002DF0800E43242E6E2950080802E12A5273
:1007F000D8A409D0010E2F26D8B0302AD8B4312A77
:10080000D8B4322AC0D7326A316A306A2F6A32527B
:1008100033E1315231E130522FE12F501F082CE3E8
:10082000416A426A436A476A486A4D6A2EC04FF07D
:100830002DC050F02CC051F02BC052F0EEDC196AE4
:10084000F2BE198EF29E1E0E556E31DC19BEF28E6E
:10085000D8902E322D322C322B322950080802E14A
:100860002A52D8A409D0010E2F26D8B0302AD8B4E5
:10087000312AD8B4322ACBD7D6EF05F02E6A2D6AAA
:100880002C6A2B6A3F6A3F500108D8A08AD0326A8E
:10089000316A306A2F6A32523EE131523CE13052C5
:1008A0003AE12F501F0837E3426A436A446A486AB4
:1008B000496A4E6A2EC04FF02DC050F02CC051F046
:1008C0002BC052F0AADC2E6A2D6A2C6A010E2B6E08
:1008D0002F50406E07E0D8902B362C362D362E3612
:1008E000402EF9D7196AF2BE198EF29E320E556E5D
:1008F00057EC00F019BEF28E2950090802E12A5285
:10090000D8A409D0010E2F26D8B0302AD8B4312A65
:10091000D8B4322AC0D7326A316A306A2F6A32526A
:100920003EE131523CE130523AE12F501F0837E3AB
:10093000426A436A446A486A496A4E6A2EC04FF066
:100940002DC050F02CC051F02BC052F066DC800E50
:100950002E6E2D6A2C6A2B6A2F50406E07E0D890BD
:100960002E322D322C322B32402EF9D7196AF2BE9C
:10097000198EF29E320E556E57EC00F019BEF28EB3
:100980002950090802E12A52D8A409D0010E2F26C5
:10099000D8B0302AD8B4312AD8B4322AC0D73F2AA6
:1009A00072D7D6EF05F0326A316A306A2F6AC80E04
:1009B0003F6E3252D8A47BD03152D8A478D0305276
:1009C000D8A475D02F50020872E34F6A506A516A5A
:1009D000526823DC196AF2BE198EF29E3FC055F0B0
:1009E00057EC00F019BEF28E4F6A506A5168526A95
:1009F00014DC196AF2BE198EF29E3FC055F057EC16
:100A000000F019BEF28E4F6A5068516A526A05DCD6
:100A1000196AF2BE198EF29E3FC055F057EC00F0F5
:100A200019BEF28E29500A0802E12A52D8A43FD0FA
:100A30004F68506A516A526A0DEC01F0196AF2BEB1
:100A4000198EF29E3FC055F057EC00F019BEF28EA1
:100A50004F6A5068516A526A0DEC01F0196AF2BE91
:100A6000198EF29E3FC055F057EC00F019BEF28E81
:100A70004F6A506A5168526A0DEC01F0196AF2BE71
:100A8000198EF29E3FC055F057EC00F019BEF28E61
:100A900029500A0802E12A52D8A409D0010E2F26B3
:100AA000D8B0302AD8B4312AD8B4322A82D7D6EF77
:100AB00005F0F86AD09E078EB886080EAF6E020E5B
:100AC000B06EA60EAC6E900EAB6E1C6A1D6A1E6AEE
:100AD0001F6A286A2A6A010E296EC150C00B0F09CD
:100AE000C16E070EB46E20682168226823682468EE
:100AF000256826682768F0EF00F03C0E936EF19EA3
:100B0000C00EF212A082B50EB16E0B0EB36EDC0EEB
:100B1000B26E000029C000F02A50036E03E1010EFE
:100B2000005C2EE0035003E1020E005C2CE0035059
:100B300003E1030E005C2AE0035003E1040E005CB5
:100B400028E0035003E1050E005C25E0035003E1BB
:100B5000060E005C22E0035003E1070E005C1FE07C
:100B6000035003E1080E005C1CE0035003E1090E92
:100B7000005C19E0035003E10A0E005C16E016D099
:100B80001EEF01F013D057EF01F010D09CEF01F0F1
:100B90000DD017D40BD04DD409D0BDD407D06BD510
:100BA00005D0EDD503D06AD601D0FDD6B3D703006A
:020000040030CA
:0E00000027CC3E1E0087A1000FC00FE00F406E
:00000001FF
;PIC18F4550
;CRC=751C  CREATED="22-Sep-23 22:30"
