:0400000069EF05F0AF
:08000800046ED8CF05F0E0CF33
:1000100006F00001E9CF0CF0EACF07F0E1CF08F0DD
:10002000E2CF09F0D9CF0AF0DACF0BF0F3CF12F01C
:10003000F4CF13F0FACF14F0F5CF15F0F6CF16F099
:10004000F7CF17F000C00EF001C00FF002C010F0A3
:1000500003C011F0F2A630EF00F0F2B06AEF00F04A
:100060000EC000F00FC001F010C002F011C003F08C
:100070000CC0E9FF07C0EAFF078E08C0E1FF09C016
:10008000E2FF0AC0D9FF0BC0DAFF12C0F3FF13C0B2
:10009000F4FF14C0FAFF15C0F5FF16C0F6FF17C035
:1000A000F7FF045006C0E0FF05C0D8FF1000EA6A61
:1000B000550EE96EEF500DE0060E016E006A002E3F
:1000C000FED7012EFBD77B0E006E002EFED7EF2E43
:1000D000F3D71200938A81BA14D0140E556EE7DF5D
:1000E000938A81BA0ED0292AD8B42A2A29500B081B
:1000F00005E12A5203E12A6A010E296E938A81AA38
:10010000FDD7938881B814D0140E556ED0DF938834
:1001100081B80ED02950D8B42A062906295205E103
:100120002A5203E12A6A0A0E296E938A81AAFDD710
:1001300081500000F29030EF00F0546A54500708EC
:100140000EE353BE02D08D9401D08D849694969088
:100150008D9096908D80D8905336542AEFD7120008
:1001600040C041F03FC042F041C053F0E6DF42C022
:1001700053F0E3DF1200406A3F6AF2DF406A3F6AF1
:10018000EFDF406A3F6AECDF406A3F6AE9DF95963D
:100190008C8695968C9695988C8895988C98959A3F
:1001A0008C8A959A8C9A959E8C8E959E8C9E959411
:1001B0008C8495948C9440683F68D2DF40683F6897
:1001C000CFDF959C8C8C959C8C9CF3EF00F0FF0E00
:1001D000926E3C0E936EF10E946E000E966E956EBE
:1001E000956A8C6AC8D7F19E1B6A1A6AC050C00B08
:1001F0000209C06EC08EC280C150C00B0C09C16E16
:1002000095908C908DEF05F04FC053F096DF50C065
:1002100053F093DF51C053F090DF52C053F08DDFA5
:1002200095988C8895988C981200938681B603D007
:100230002A6A010E296E1200326A316A306A2F6A08
:10024000325232E1315230E130522EE12F50090862
:100250002BE34F68506A516A5268D6DF196AF2BEC2
:10026000198EF29E6E0E556E22DF19BEF28E4F6A07
:1002700050685168526AC8DF196AF2BE198EF29E40
:100280006E0E556E14DF19BEF28E010E2F26D8B0F9
:10029000302AD8B4312AD8B4322AC7DF292C02D068
:1002A0002A52D8A401D0CCD7DFEF05F0326A316AE8
:1002B000306A2F6A32523EE131523CE130523AE12B
:1002C0002F50200837E3B1DFE00E2E6E2D6A2C6A26
:1002D0002B6A2F503F6E07E0D8902E322D322C32F1
:1002E0002B323F2EF9D7416A426A436A476A486A0D
:1002F0004D6A2EC04FF02DC050F02CC051F02BC0D5
:1003000052F082DF196AF2BE198EF29E320E556EDD
:10031000CEDE19BEF28E2950020802E12A52D8A47C
:1003200009D0010E2F26D8B0302AD8B4312AD8B43B
:10033000322AC0D7DFEF05F0326A316A306A2F6A9D
:1003400032523EE131523CE130523AE12F50200826
:1003500037E36BDF2E6A2D6A2C6A070E2B6E2F5047
:100360003F6E07E0D8902B362C362D362E363F2E9A
:10037000F9D7416A426A436A476A486A4D6A2EC0A1
:100380004FF02DC050F02CC051F02BC052F03CDF8C
:10039000196AF2BE198EF29E320E556E88DE19BEB3
:1003A000F28E2950030802E12A52D8A409D0010E86
:1003B0002F26D8B0302AD8B4312AD8B4322AC0D7A0
:1003C000DFEF05F02E6A2D6A2C6A2B6A326A316AD9
:1003D000306A2F6A32522DE131522BE1305229E13D
:1003E0002F50090826E321DF2BC04FF02BC050F01F
:1003F0002BC051F02BC052F007DF196AF2BE198EE4
:10040000F29EC80E556E53DE19BEF28E2B1E2C1EA8
:100410002D1E2E1E010E2F26D8B0302AD8B4312A18
:10042000D8B4322A2950040802E12A52D8A401D0B3
:10043000D1D7DFEF05F03E6A3D6A3C6A3B6A366A17
:10044000356A346A336A365267E1355265E13452AF
:1004500063E133501F0860E33A6A396A386A010E73
:10046000376E36C032F035C031F034C030F033C0B2
:100470002FF0325240E131523EE130523CE12F50F8
:100480001F0839E3D2DE37503B102B6E38503C103A
:100490002C6E39503D102D6E3A503E102E6E416A32
:1004A000426A436A476A486A4D6A2EC04FF02DC0BF
:1004B00050F02CC051F02BC052F0A6DE196AF2BEEB
:1004C000198EF29E0A0E556EF2DD19BEF28ED8908C
:1004D0003736383639363A362950050802E12A527D
:1004E000D8A409D0010E2F26D8B0302AD8B4312A8A
:1004F000D8B4322ABED72EC03EF02DC03DF02CC05D
:100500003CF02BC03BF0010E3326D8B0342AD8B4CF
:10051000352AD8B4362A97D7DFEF05F02E6A2D6832
:100520002C682B68416A426A436A476A486A4D6A86
:100530002EC04FF02DC050F02CC051F02BC052F007
:1005400063DE196AF2BE198EF29E640E556EAFDD3F
:1005500019BEF28E3E683D683C68FE0E3B6E3EC0A2
:100560002EF03DC02DF03CC02CF03BC02BF0326A89
:10057000316A306A2F6A3252D8A47FD03152D8A45F
:100580007CD03052D8A479D02F501F08D8A075D075
:100590003A6A396A386A010E376E2F503F6E07E0AB
:1005A000D8903736383639363A363F2EF9D7366A4C
:1005B000356A346A336A010E2F24006E000E302033
:1005C000016E000E3120026E000E3220036E365096
:1005D000035C45E30BE13550025C41E307E1345035
:1005E000015C3DE303E10050335C39E21EDED8904C
:1005F0003A3239323832373237503B102B6E38505E
:100600003C102C6E39503D102D6E3A503E102E6E1F
:10061000416A426A436A476A486A4D6A2EC04FF08F
:100620002DC050F02CC051F02BC052F0EDDD196AF6
:10063000F2BE198EF29E0A0E556E39DD19BEF28E8B
:100640002950060802E12A52D8A409D0010E332607
:10065000D8B0342AD8B4352AD8B4362AACD7D890F2
:100660003B363C363D363E36010E2F26D8B0302A7A
:10067000D8B4312AD8B4322A7ED7DFEF05F0326AF7
:10068000316A306A2F6A325244E1315242E13052CB
:1006900040E12F501F083DE3C8DD416A426A436ACA
:1006A000476A486A4D6A2EC04FF02DC050F02CC0EA
:1006B00051F02BC052F0A8DD196AF2BE198EF29EDD
:1006C0001E0E556EF4DC19BEF28ED8902B34406E9F
:1006D0002C34416E2D34426E2E34436E010E402474
:1006E0002B6E000E41202C6E000E42202D6E000E4F
:1006F00043202E6E2950070802E12A52D8A409D0BF
:10070000010E2F26D8B0302AD8B4312AD8B4322AD4
:10071000BAD7326A316A306A2F6A325234E13152C2
:1007200032E1305230E12F501F082DE37EDD416A67
:10073000426A436A476A486A4D6A2EC04FF02DC02C
:1007400050F02CC051F02BC052F05EDD196AF2BEA1
:10075000198EF29E1E0E556EAADC19BEF28ED8902E
:100760002B362C362D362E362950070802E12A5218
:10077000D8A409D0010E2F26D8B0302AD8B4312AF7
:10078000D8B4322ACAD7DFEF05F0326A316A306A4C
:100790002F6A32523FE131523DE130523BE12F505E
:1007A0001F0838E342DD416A426A436A476A486A81
:1007B0004D6A2EC04FF02DC050F02CC051F02BC010
:1007C00052F022DD196AF2BE198EF29E1E0E556E8F
:1007D0006EDC19BEF28ED8902E30436E2D30426EF4
:1007E0002C30416E2B302B6E41C02CF042C02DF0CE
:1007F000800E43242E6E2950080802E12A52D8A404
:1008000009D0010E2F26D8B0302AD8B4312AD8B456
:10081000322ABFD7326A316A306A2F6A325234E1E3
:10082000315232E1305230E12F501F082DE3FDDC10
:10083000416A426A436A476A486A4D6A2EC04FF06D
:100840002DC050F02CC051F02BC052F0DDDC196AE5
:10085000F2BE198EF29E1E0E556E29DC19BEF28E66
:10086000D8902E322D322C322B322950080802E13A
:100870002A52D8A409D0010E2F26D8B0302AD8B4D5
:10088000312AD8B4322ACAD7DFEF05F02E6A2D6A92
:100890002C6A2B6A3F6A3F500108D8A08CD0326A7C
:1008A000316A306A2F6A32523FE131523DE13052B3
:1008B0003BE12F501F0838E3B8DC426A436A446AC0
:1008C000486A496A4E6A2EC04FF02DC050F02CC0C5
:1008D00051F02BC052F098DC2E6A2D6A2C6A010E62
:1008E0002B6E2F50406E07E0D8902B362C362D36CD
:1008F0002E36402EF9D7196AF2BE198EF29E320EAC
:10090000556E57EC00F019BEF28E2950090802E12D
:100910002A52D8A409D0010E2F26D8B0302AD8B434
:10092000312AD8B4322ABFD7326A316A306A2F6A84
:1009300032523FE131523DE130523BE12F501F082E
:1009400038E373DC426A436A446A486A496A4E6A19
:100950002EC04FF02DC050F02CC051F02BC052F0E3
:1009600053DC800E2E6E2D6A2C6A2B6A2F50406E3F
:1009700007E0D8902E322D322C322B32402EF9D770
:10098000196AF2BE198EF29E320E556E57EC00F0C7
:1009900019BEF28E2950090802E12A52D8A409D0C2
:1009A000010E2F26D8B0302AD8B4312AD8B4322A32
:1009B000BFD73F2A70D7DFEF05F0326A316A306A5D
:1009C0002F6AC80E3F6E3252D8A481D03152D8A4BB
:1009D0007ED03052D8A47BD02F500208D8A077D038
:1009E00024DC4F6A506A516A52680EDC196AF2BE02
:1009F000198EF29E3FC055F057EC00F019BEF28EF2
:100A00004F6A506A5168526A04EC01F0196AF2BEEA
:100A1000198EF29E3FC055F057EC00F019BEF28ED1
:100A20004F6A5068516A526A04EC01F0196AF2BECA
:100A3000198EF29E3FC055F057EC00F019BEF28EB1
:100A400029500A0802E12A52D8A441D04F68506ABE
:100A5000516A526A04EC01F0196AF2BE198EF29ED4
:100A60003FC055F057EC00F019BEF28E15EC01F0C6
:100A70004F6A5068516A526A04EC01F0196AF2BE7A
:100A8000198EF29E3FC055F057EC00F019BEF28E61
:100A90004F6A506A5168526A04EC01F0196AF2BE5A
:100AA000198EF29E3FC055F057EC00F019BEF28E41
:100AB00029500A0802E12A52D8A409D0010E2F2693
:100AC000D8B0302AD8B4312AD8B4322A7CD7DFEF54
:100AD00005F0F86AD09E078EB886080EAF6E020E3B
:100AE000B06EA60EAC6E900EAB6E1C6A1D6A1E6ACE
:100AF0001F6A286A2A6A010E296EC150C00B0F09AD
:100B0000C16E070EB46E20682168226823682468CD
:100B1000256826682768E7EF00F03C0E936EF19E8B
:100B2000C00EF212F28629C000F02A50036E03E1D3
:100B3000010E005C2EE0035003E1020E005C2CE08D
:100B4000035003E1030E005C2AE0035003E1040EAE
:100B5000005C28E0035003E1050E005C25E0035033
:100B600003E1060E005C22E0035003E1070E005C87
:100B70001FE0035003E1080E005C1CE0035003E19A
:100B8000090E005C19E0035003E10A0E005C16E058
:100B900016D01CEF01F013D056EF01F010D09CEFEF
:100BA00001F00DD00FD40BD046D409D0B7D407D064
:100BB00066D505D0EAD503D069D601D0FED6B3D725
:020BC000030030
:020000040030CA
:0E00000027CC3E1E0087A1000FC00FE00F406E
:00000001FF
;PIC18F4550
;CRC=609D  CREATED="22-Sep-23 22:42"
