:1000000080EF00F0186A18500708D8A019EF00F028
:1000100017BE0EEF00F08D940FEF00F08D849694D4
:1000200096908D9096908D80D8901736182A03EF71
:1000300000F0120014C015F013C016F015C017F030
:10004000E1DF16C017F0DEDF1200146A136AF2DF78
:10005000146A136AEFDF146A136AECDF146A136A16
:10006000E9DF95968C8695968C9695988C889598D0
:100070008C98959A8C8A959A8C9A959E8C8E959E42
:100080008C9E95948C8495948C9414681368D2DF1C
:1000900014681368CFDF959C8C8C959C8C9C5DEFCD
:1000A00000F0FF0E926E3C0E936EF10E946E000EF9
:1000B000966E956E956A8C6AC8D7F19E056A046A39
:1000C000C050C00B0209C06EC08EC280C150C00BB0
:1000D0000C09C16E95908C909FEF00F016C017F040
:1000E00091DF15C017F08EDF14C017F08BDF13C03F
:1000F00017F088DF959C8C9C959C8C8CA8EF00F069
:10010000F86AD09EB886080EAF6E020EB06EA60ECC
:10011000AC6E900EAB6E066A076A086A096A126ACC
:10012000C150C00B0F09C16E070EB46E0A680B6890
:100130000C680D680E680F6810681168B2D7B00EB1
:10014000136EA40E146EF90E156EC00E166EC6D781
:04015000FFD70300D2
:020000040030CA
:0E00000027CC3E1E0087A1000FC00FE00F406E
:00000001FF
;PIC18F4550
;CRC=987E  CREATED="21-Sep-23 13:18"
