:100000009FEF00F0F76A140FF66E000EF72209005A
:10001000F5501200C0F9A4B0999282F880908883BC
:10002000C6A1868E1A6A1A5007080EE319BE02D0BE
:100030008D9401D08D84969496908D9096908D801D
:10004000D89019361A2AEFD7120015C016F014C02E
:1000500017F016C019F0E6DF17C019F0E3DF120041
:10006000156A146AF2DF156A146AEFDF156A146AFA
:10007000ECDF156A146AE9DF95968C8695968C9666
:1000800095988C8895988C98959A8C8A959A8C9A44
:10009000959E8C8E959E8C9E95948C8495948C9434
:1000A00015681468D2DF15681468CFDF959C8C8CB6
:1000B000959C8C9C68EF00F0FF0E926E3C0E936E48
:1000C000F10E946E000E966E956E956A8C6AC8D786
:1000D000F19E056A046AC050C00B0209C06EC08E52
:1000E000C280C150C00B0C09C16E95908C90BEEFC0
:1000F00000F018C019F096DF17C019F093DF16C092
:1001000019F090DF15C019F08DDF959C8C9C959CA3
:100110008C8CD0EF00F0EA6A150EE96EEF500DE01E
:10012000060E016E006A002EFED7012EFBD77B0E55
:10013000006E002EFED7EF2EF3D7D5EF00F0F86A51
:10014000D09EB886080EAF6E020EB06EA60EAC6ED4
:10015000900EAB6E066A076A086A096A126AC15095
:10016000C00B0F09C16E070EB46E0A680B680C68ED
:100170000D680E680F68106811689ED7136A13BE69
:1001800003D01350090815E3036A1350006EE8BE4C
:10019000030638DF146E156816681768186EA9D73D
:1001A000020E146EFA0E156EB6D7142EFBD7132A54
:0601B000E6D7E4D70300CE
:020000040030CA
:0E00000027CC3E1E0087A1000FC00FE00F406E
:00000001FF
;PIC18F4550
;CRC=F93C  CREATED="21-Sep-23 13:28"
