:10000000C1EF00F0F76A140FF66E000EF722090038
:10001000F5501200C0F9A4B0999282F880908883BC
:10002000C6A1868E1B6A1B5007080EE31ABE02D0BB
:100030008D9401D08D84969496908D9096908D801D
:10004000D8901A361B2AEFD7120015C016F014C02C
:1000500017F016C01AF0E6DF17C01AF0E3DF12003F
:10006000156A146AF2DF156A146AEFDF156A146AFA
:10007000ECDF156A146AE9DF95968C8695968C9666
:1000800095988C8895988C98959A8C8A959A8C9A44
:10009000959E8C8E959E8C9E95948C8495948C9434
:1000A00015681468D2DF15681468CFDF959C8C8CB6
:1000B000959C8C9C68EF00F0FF0E926E3C0E936E48
:1000C000F10E946E000E966E956E956A8C6AC8D786
:1000D000F19E056A046AC050C00B0209C06EC08E52
:1000E000C280C150C00B0C09C16E95908C90E0EF9E
:1000F00000F015501618800B186E15AE02D0151EA4
:10010000152A16AE02D0161E162A1650016A155C64
:1001100003E215C000F00CD0006A080E176E153609
:1001200000361650005CD8B0006E0136172EF7D797
:1001300018AE02D0011E012A120019C01AF072DF97
:1001400018C01AF06FDF17C01AF06CDF16C01AF073
:1001500069DF959C8C9C959C8C8C1200EA6A150E2C
:10016000E96EEF500DE0060E016E006A002EFED71C
:10017000012EFBD77B0E006E002EFED7EF2EF3D79D
:100180001200F86AD09EB886080EAF6E020EB06EEE
:10019000A60EAC6E900EAB6E066A076A086A096A14
:1001A000126AC150C00B0F09C16E070EB46E0A6807
:1001B0000B680C680D680E680F68106811687CD7B2
:1001C000136A13BE03D013503B082FE313C015F07E
:1001D0000A0E166E00018DDF036A0150006EE8BE44
:1001E000030610DF146E13C015F00A0E166E81DFC1
:1001F000036A005000BE030605DF156E1668176817
:1002000014C018F0196E99DFC80E156EA7DF1350D1
:100210003B0808E10C0E146EFA0E156E9FDF142ECB
:10022000FBD704D0132A0001CCD700013B0E136E7C
:1002300013BE2ED013C015F00A0E166E000159DF42
:10024000036A0150006EE8BE0306DCDE146E13C0C4
:1002500015F00A0E166E4DDF036A005000BE03064D
:10026000D1DE156E1668176814C018F0196E65DFB8
:10027000C80E156E73DF135208E10C0E146EFA0EE1
:10028000156E6CDF142EFBD79BD713060001D0D759
:06029000000196D70300F7
:020000040030CA
:0E00000027CC3E1E0087A1000FC00FE00F406E
:00000001FF
;PIC18F4550
;CRC=49C1  CREATED="21-Sep-23 13:39"
