:10000000D9EF00F0F76A140FF66E000EF722090020
:10001000F5501200C0F9A4B0999282F880908883BC
:10002000C6A1868E266A265007080EE325BE02D09A
:100030008D9401D08D84969496908D9096908D801D
:10004000D8902536262AEFD7120016C017F015C013
:1000500018F017C025F0E6DF18C025F0E3DF120026
:10006000166A156AF2DF166A156AEFDF166A156AF4
:10007000ECDF166A156AE9DF95968C8695968C9664
:1000800095988C8895988C98959A8C8A959A8C9A44
:10009000959E8C8E959E8C9E95948C8495948C9434
:1000A00016681568D2DF16681568CFDF959C8C8CB2
:1000B000959C8C9C68EF00F0FF0E926E3C0E936E48
:1000C000F10E946E000E966E956E956A8C6AC8D786
:1000D000F19E056A046AC050C00B0209C06EC08E52
:1000E000C280C150C00B0C09C16E95908C90F8EF86
:1000F00000F01F502118800B236E1FAE05D01E1E6E
:100100001F1E1E2AD8B41F2A21AE05D0201E211E74
:10011000202AD8B4212A016A026A006A036A21509F
:1001200002E1205018E0100E226ED8901E361F36C5
:10013000003603362150035C02E12050005C07E3E7
:100140002050005ED8A003062150035ED8800136FF
:100150000236222EEAD723AE05D0011E021E012A46
:10016000D8B4022A120024C025F05CDF23C025F099
:1001700059DF22C025F056DF21C025F053DF959CC2
:100180008C9C959C8C8C76EF01F0EA6A150EE96EDA
:10019000EF500DE0060E016E006A002EFED7012E14
:1001A000FBD77B0E006E002EFED7EF2EF3D779EF34
:1001B00001F0F86AD09EB886080EAF6E020EB06EDF
:1001C000A60EAC6E900EAB6E066A076A086A096AE4
:1001D000126AC150C00B0F09C16E070EB46E0A68D7
:1001E0000B680C680D680E680F681068116864D79A
:1001F000146A136A14BE09D014502708D8A07DD001
:1002000004E113500F08D8A078D014C01FF013C019
:100210001EF0030E216EE80E206E6BDF02C016F09A
:1002200001C015F002C01FF001C01EF0216A0A0EC5
:10023000206E5FDF00C015F003C016F003C003F0AE
:100240000050E0DE176E14C01FF013C01EF0216ACC
:10025000640E206E4EDF02C019F001C018F002C01B
:100260001FF001C01EF0216A0A0E206E42DF00C09E
:1002700018F003C019F003C003F00050C3DE1A6E7B
:1002800014C01FF013C01EF0216A0A0E206E31DF69
:1002900002C01CF001C01BF002C01FF001C01EF024
:1002A000216A0A0E206E25DF00C01BF003C01CF07F
:1002B00003C003F00050A6DE1D6E14C01FF013C073
:1002C0001EF0216A0A0E206E14DF00C01EF003C06B
:1002D0001FF003C003F0005095DE206E17C021F020
:1002E0001AC022F01DC023F0246E3DD70A0E156EF1
:0E02F0004CD7132AD8B4142A7DD77AD703002E
:020000040030CA
:0E00000027CC3E1E0087A1000FC00FE00F406E
:00000001FF
;PIC18F4550
;CRC=5912  CREATED="21-Sep-23 13:44"
