:10000000C3EF00F0F76A140FF66E000EF722090036
:10001000F5501200C0F9A4B0999282F880908883BC
:10002000C6A1868E1E6A1E5007080EE31DBE02D0B2
:100030008D9401D08D84969496908D9096908D801D
:10004000D8901D361E2AEFD7120016C017F015C023
:1000500018F017C01DF0E6DF18C01DF0E3DF120036
:10006000166A156AF2DF166A156AEFDF166A156AF4
:10007000ECDF166A156AE9DF95968C8695968C9664
:1000800095988C8895988C98959A8C8A959A8C9A44
:10009000959E8C8E959E8C9E95948C8495948C9434
:1000A00016681568D2DF16681568CFDF959C8C8CB2
:1000B000959C8C9C68EF00F0FF0E926E3C0E936E48
:1000C000F10E946E000E966E956E956A8C6AC8D786
:1000D000F19E056A046AC050C00B0209C06EC08E52
:1000E000C280C150C00B0C09C16E95908C90E2EF9C
:1000F00000F018501918800B1B6E18AE02D0181E95
:10010000182A19AE02D0191E192A1950016A185C52
:1001100003E218C000F00CD0006A080E1A6E183600
:1001200000361950005CD8B0006E01361A2EF7D791
:100130001BAE02D0011E012A12001CC01DF072DF8E
:100140001BC01DF06FDF1AC01DF06CDF19C01DF061
:1001500069DF959C8C9C959C8C8C28EF01F0EA6A59
:10016000160EE96EEF500DE0060E016E006A002ECD
:10017000FED7012EFBD77B0E006E002EFED7EF2E92
:10018000F3D72DEF01F0F86AD09EB886080EAF6E57
:10019000020EB06EA60EAC6E900EAB6E066A076ACB
:1001A000086A096A126AC150C00B0F09C16E070EB6
:1001B000B46E0A680B680C680D680E680F681068EA
:1001C00011687AD7136A13BE03D0135017084BE394
:1001D000146A14BE03D014503B0843E313C018F054
:1001E0000A0E196E86DF036A0150006EE8BE030630
:1001F00009DF156E13C018F00A0E196E7ADF036A54
:10020000005000BE0306FEDE166E14C018F00A0E83
:10021000196E6FDF01C018F00A0E196E6ADF036AEB
:10022000005000BE0306EEDE176E14C018F00A0E72
:10023000196E5FDF036A005000BE0306E3DE186E2E
:1002400015C019F016C01AF017C01BF01C6E75D738
:10025000040E156EFA0E166E82D7152EFBD7142AD1
:0A026000B8D7132AB0D7AED70300B9
:020000040030CA
:0E00000027CC3E1E0087A1000FC00FE00F406E
:00000001FF
;PIC18F4550
;CRC=9713  CREATED="21-Sep-23 13:48"
