:10000000B9EF01F0F76A140FF66E000EF72209003F
:10001000F5501200C0F9A4B0999282F880908883BC
:10002000C6A1868EF76A340FF66E000EF72209001D
:10003000F55012003F7FBFFF2A6A2A5007080EE3DF
:1000400029BE02D08D9401D08D84969496908D9087
:1000500096908D80D89029362A2AEFD7120022C098
:1000600023F021C024F023C029F0E6DF24C029F0CA
:10007000E3DF1200226A216AF2DF226A216AEFDFDF
:10008000226A216AECDF226A216AE9DF95968C8672
:1000900095968C9695988C8895988C98959A8C8A3C
:1000A000959A8C9A959E8C8E959E8C9E95948C8418
:1000B00095948C9422682168D2DF22682168CFDF72
:1000C000959C8C8C959C8C9C72EF00F0FF0E926E30
:1000D0003C0E936EF10E946E000E966E956E956AC0
:1000E0008C6AC8D7F19E056A046AC050C00B020929
:1000F000C06EC08EC280C150C00B0C09C16E9590FD
:100100008C90DEEF01F028C029F096DF27C029F09F
:1001100093DF26C029F090DF25C029F08DDF959C64
:100120008C9C959C8C8C1200006A016A2450D8909B
:1001300025B000260032013225B2002600320132FD
:1001400025B400260032013225B6002600320132E5
:1001500025B800260032013225BA002600320132CD
:1001600025BC00260032013225BE002600320132B5
:10017000EFEF00F0226822C021F0236A23BE03D0F3
:100180002350030824E3036A2350006EE8BE0306ED
:1001900049DF936A8A6E938481B404D0030E226E81
:1001A00016D013D0938681B604D0020E226E0FD0E3
:1001B0000CD0938881B804D0010E226E08D005D0EF
:1001C000938A81BA02D0226A02D0232AD7D7223C4E
:1001D00001D008D023C024F0040E256EA5D72250EC
:1001E0000124216E21C001F01200EA6A210EE96E9D
:1001F000EF500DE0060E016E006A002EFED7012EB4
:10020000FBD77B0E006E002EFED7EF2EF3D712EF3A
:1002100001F0B0DF01C013F0133C01D00CD0140E7C
:10022000216EE3D7A7DF01C013F0A4DF01C014F0F3
:100230001350145CFAE013C001F0F9EF01F01B3C1D
:1002400002D01C5225E01C5223E11B50090820E378
:100250001FC020F01EC01FF01DC01EF01BC01DF0EF
:10026000036A2050CFDE216E036A1F50CBDE226E60
:10027000036A1E50C7DE236E036A1D50C3DE246E60
:1002800021C025F022C026F023C027F0286E3BDFD6
:10029000FDEF01F01B500A0852E11C5250E1166AB2
:1002A000156A16524CE11550020849E3010E152457
:1002B000176E000E1620186E18523DE117500308F5
:1002C0003AE31D0E1524E96E000E1620EA6EEFCFFC
:1002D00021F01D0E1724E96E000E1820EA6EEF5073
:1002E000215C25E21D0E1524E96E000E1620EA6E33
:1002F0001A6AEFCF19F01D0E1524016E000E16209C
:10030000036E1D0E1724E96E000E1820EA6EEFCF63
:1003100023F003C0EAFF01C0E9FF23C0EFFF1D0E79
:100320001724E96E000E1820EA6E19C0EFFF172A95
:10033000D8B4182AC1D7152AD8B4162AB2D7036A56
:10034000205060DE216E036A1F505CDE226E036A5D
:100350001E5058DE236E036A1D5054DE246E21C0E9
:1003600025F022C026F023C027F0286ECCDEFEEF59
:1003700001F0F86AD09EB886080EAF6E020EB06E1D
:10038000A60EAC6E900EAB6E066A076A086A096A22
:10039000126A136A146AC150C00B0F09C16E070EAE
:1003A000B46E0A680B680C680D680E680F681068F8
:1003B00011681D6A1E6A1F6A206A88D63C0E936EF9
:1003C000036A20501FDE216E036A1F501BDE226E5F
:1003D000036A1E5017DE236E036A1D5013DE246E5F
:1003E00021C025F022C026F023C027F0286E8BDE26
:1003F00010D71C6A01C01BF022D74CD7F9D70300D5
:020000040030CA
:0E00000027CC3E1E0087A1000FC00FE00F406E
:00000001FF
;PIC18F4550
;CRC=02E6  CREATED="21-Sep-23 15:35"
