:10000000D9EF01F0F76A140FF66E000EF72209001F
:10001000F5501200C0F9A4B0999282F880908883BC
:10002000C6A1868EF76A340FF66E000EF72209001D
:10003000F55012003F7FBFFF2E6A2E5007080EE3D7
:100040002DBE02D08D9401D08D84969496908D9083
:1000500096908D80D8902D362E2AEFD712002AC088
:100060002BF029C02CF02BC02DF0E6DF2CC02DF09A
:10007000E3DF12002A6A296AF2DF2A6A296AEFDFBF
:100080002A6A296AECDF2A6A296AE9DF95968C8652
:1000900095968C9695988C8895988C98959A8C8A3C
:1000A000959A8C9A959E8C8E959E8C9E95948C8418
:1000B00095948C942A682968D2DF2A682968CFDF52
:1000C000959C8C8C959C8C9C72EF00F0FF0E926E30
:1000D0003C0E936EF10E946E000E966E956E956AC0
:1000E0008C6AC8D7F19E056A046AC050C00B020929
:1000F000C06EC08EC280C150C00B0C09C16E9590FD
:100100008C9006EF02F0006A016A2C50D8902DB056
:100110000026003201322DB20026003201322DB409
:100120000026003201322DB60026003201322DB8F1
:100130000026003201322DBA0026003201322DBCD9
:100140000026003201322DBE002600320132DEEFE1
:1001500000F02A682AC029F02B6A2BBE03D02B504E
:10016000030824E3036A2B50006EE8BE03065ADF3F
:10017000936A8A6E938481B404D0030E2A6E16D0DB
:1001800013D0938681B604D0020E2A6E0FD00CD005
:10019000938881B804D0010E2A6E08D005D0938AC6
:1001A00081BA02D02A6A02D02B2AD7D72A3C01D0A2
:1001B00008D02BC02CF0040E2D6EA5D72A50012498
:1001C000296E29C001F01200EA6A290EE96EEF508B
:1001D0000DE0060E016E006A002EFED7012EFBD741
:1001E0007B0E006E002EFED7EF2EF3D701EF01F04D
:1001F000B0DF01C013F0133C01D00CD0140E296EF7
:10020000E3D7A7DF01C013F0A4DF01C014F013503F
:10021000145CFAE013C001F007EF02F02CC02DF0DF
:100220000BDF2BC02DF008DF2AC02DF005DF29C021
:100230002DF002DF959C8C9C959C8C8C12001C529E
:100240005CE11B50090859E3186A176A185224E147
:100250001750060821E3210E1724016E000E182006
:10026000036E01C029F02A6E010E17242B6E000EBA
:1002700018202C6E210E2B24E96E000E2C20EA6E25
:10028000EFCF2DF003C0EAFF01C0E9FF2DC0EFFF63
:10029000172AD8B4182ADAD71CC003F01B50B2DED4
:1002A000286E166A156A16521EE1155003081BE3E4
:1002B0001D0E1524016E000E1620036E01C029F0DC
:1002C0002A6E250E1524E96E000E1620EA6EEFCF79
:1002D0002DF003C0EAFF01C0E9FF2DC0EFFF152A92
:1002E000D8B4162AE0D71DC029F01EC02AF01FC0BE
:1002F0002BF020C02CF092DF5AD01B500A0857E197
:100300001C5255E1186A070E176E175202E1185277
:1003100022E0210E1724016E000E1820036E01C08A
:1003200029F02A6E010E175C2B6E000E18582C6EE9
:10033000210E2B24E96E000E2C20EA6EEFCF2DF05B
:1003400003C0EAFF01C0E9FF2DC0EFFF1750D8B48A
:1003500018061706DAD72168166A156A16521EE1C2
:10036000155003081BE31D0E1524016E000E162008
:10037000036E01C029F02A6E250E1524E96E000EC9
:100380001620EA6EEFCF2DF003C0EAFF01C0E9FFAF
:100390002DC0EFFF152AD8B4162AE0D71DC029F0CA
:1003A0001EC02AF01FC02BF020C02CF037DF0BEF4F
:1003B00002F0F86AD09EB886080EAF6E020EB06EDC
:1003C000A60EAC6E900EAB6E066A076A086A096AE2
:1003D000126A136A146AC150C00B0F09C16E070E6E
:1003E000B46E0A680B680C680D680E680F681068B8
:1003F00011681D681E681F682068216822682368CC
:100400002468256826682768286860D6F1D61C6AA3
:0A04100001C01BF014D7FAD7030057
:020000040030CA
:0E00000027CC3E1E0087A1000FC00FE00F406E
:00000001FF
;PIC18F4550
;CRC=8059  CREATED="21-Sep-23 15:34"
