:1000000092EF00F01E6A1E500708D8A019EF00F00A
:100010001DBE0EEF00F08D940FEF00F08D849694CE
:1000200096908D9096908D80D8901D361E2A03EF65
:1000300000F0120018C019F017C01AF019C01DF016
:10004000E1DF1AC01DF0DEDF1200186A176AF2DF66
:10005000186A176AEFDF186A176AECDF186A176AFE
:10006000E9DF95968C8695968C9695988C889598D0
:100070008C98959A8C8A959A8C9A959E8C8E959E42
:100080008C9E95948C8495948C9418681768D2DF14
:1000900018681768CFDF959C8C8C959C8C9C5DEFC5
:1000A00000F0FF0E926E3C0E936EF10E946E000EF9
:1000B000966E956E956A8C6AC8D7F19E056A046A39
:1000C000C050C00B0209C06EC08EC280C150C00BB0
:1000D0000C09C16E95908C90B1EF00F019C01DF025
:1000E00091DF1AC01DF08EDF1BC01DF08BDF1CC01E
:1000F0001DF088DF95988C8895988C981200EA6A94
:10010000170EE96EEF500DE0060E016E006A002E2C
:10011000FED7012EFBD77B0E006E002EFED7EF2EF2
:10012000F3D71200F86AD09EB886080EAF6E020EA2
:10013000B06EA60EAC6E900EAB6E066A076A086AC9
:10014000096A126AC150C00B0F09C16E070EB46E66
:100150000A680B680C680D680E680F6810681168F3
:10016000A0D7146A136A166A156A16521DE1155053
:100170000F081AE3186A196A1A6A14C01BF013C030
:100180001CF0ACDFC80E176EBADFD8901334176EB0
:100190001434186E010E1724136E000E1820146EFE
:1001A000152AD8B4162AE1D7166A156A165215E12F
:1001B00015500F0812E3186A196A1A6A14C01BF066
:1001C00013C01CF08BDFC80E176E99DFD890133662
:0E01D0001436152AD8B4162AE9D7C5D703006D
:020000040030CA
:0E00000027CC3E1E0087A1000FC00FE00F406E
:00000001FF
;PIC18F4550
;CRC=CCEE  CREATED="31-Aug-23 15:20"
