:1000000092EF00F01A6A1A500708D8A019EF00F012
:1000100019BE0EEF00F08D940FEF00F08D849694D2
:1000200096908D9096908D80D89019361A2A03EF6D
:1000300000F0120016C017F015C018F017C019F024
:10004000E1DF18C019F0DEDF1200166A156AF2DF70
:10005000166A156AEFDF166A156AECDF166A156A0A
:10006000E9DF95968C8695968C9695988C889598D0
:100070008C98959A8C8A959A8C9A959E8C8E959E42
:100080008C9E95948C8495948C9416681568D2DF18
:1000900016681568CFDF959C8C8C959C8C9C5DEFC9
:1000A00000F0FF0E926E3C0E936EF10E946E000EF9
:1000B000966E956E956A8C6AC8D7F19E056A046A39
:1000C000C050C00B0209C06EC08EC280C150C00BB0
:1000D0000C09C16E95908C90B1EF00F015C019F02D
:1000E00091DF16C019F08EDF17C019F08BDF18C032
:1000F00019F088DF95988C8895988C981200EA6A98
:10010000150EE96EEF500DE0060E016E006A002E2E
:10011000FED7012EFBD77B0E006E002EFED7EF2EF2
:10012000F3D71200F86AD09EB886080EAF6E020EA2
:10013000B06EA60EAC6E900EAB6E066A076A086AC9
:10014000096A126AC150C00B0F09C16E070EB46E66
:100150000A680B680C680D680E680F6810681168F3
:10016000A0D7136A146A145007080FE3156A166AB9
:10017000176A13C018F0B2DFC80E156EC0DFD89032
:100180001334010F136E142AEED7146A14500708A3
:100190000DE3156A166A176A13C018F09FDFC80EC0
:1001A000156EADDFD8901336142AF0D7DBD70300D5
:020000040030CA
:0E00000027CC3E1E0087A1000FC00FE00F406E
:00000001FF
;PIC18F4550
;CRC=ACC1  CREATED="31-Aug-23 13:45"
