:1000000092EF00F02F6A2F500708D8A019EF00F0E8
:100010002EBE0EEF00F08D940FEF00F08D849694BD
:1000200096908D9096908D80D8902E362F2A03EF43
:1000300000F012001CC01DF01BC01EF01DC02EF0F1
:10004000E1DF1EC02EF0DEDF12001C6A1B6AF2DF49
:100050001C6A1B6AEFDF1C6A1B6AECDF1C6A1B6AE6
:10006000E9DF95968C8695968C9695988C889598D0
:100070008C98959A8C8A959A8C9A959E8C8E959E42
:100080008C9E95948C8495948C941C681B68D2DF0C
:100090001C681B68CFDF959C8C8C959C8C9C5DEFBD
:1000A00000F0FF0E926E3C0E936EF10E946E000EF9
:1000B000966E956E956A8C6AC8D7F19E056A046A39
:1000C000C050C00B0209C06EC08EC280C150C00BB0
:1000D0000C09C16E95908C90B1EF00F02AC02EF003
:1000E00091DF2BC02EF08EDF2CC02EF08BDF2DC0C9
:1000F0002EF088DF95988C8895988C981200EA6A83
:100100001B0EE96EEF500DE0060E016E006A002E28
:10011000FED7012EFBD77B0E006E002EFED7EF2EF2
:10012000F3D71200F86AD09EB886080EAF6E020EA2
:10013000B06EA60EAC6E900EAB6E066A076A086AC9
:10014000096A126AC150C00B0F09C16E070EB46E66
:100150000A680B680C680D680E680F6810681168F3
:10016000A0D7166A156A146A136A1A6A196A186A95
:10017000176A1A5237E1195235E1185233E1175014
:100180001F0830E31D6A1E6A1F6A236A246A296AEF
:1001900016C02AF015C02BF014C02CF013C02DF09F
:1001A0009DDF320E1B6EABDFD89013341C6E1434FF
:1001B0001D6E15341E6E16341F6E010E1C24136E38
:1001C000000E1D20146E000E1E20156E000E1F2046
:1001D000166E010E1726D8B0182AD8B4192AD8B42A
:1001E0001A2AC7D71A6A196A186A176A1A5227E1AF
:1001F000195225E1185223E117501F0820E31D6A08
:100200001E6A1F6A236A246A296A16C02AF015C06A
:100210002BF014C02CF013C02DF060DF320E1B6EDB
:100220006EDFD8901336143615361636010E1726A3
:10023000D8B0182AD8B4192AD8B41A2AD7D71A6A23
:10024000196A186A176A1A5232E1195230E11852C3
:100250002EE117501F082BE31D6A1E6A1F6A236ACE
:10026000246A296A16C02AF015C02BF014C02CF09D
:1002700013C02DF033DF320E1B6E41DFD8901630E5
:100280001F6E15301E6E14301D6E1330136E1DC0A0
:1002900014F01EC015F0800E1F24166E010E1726D6
:1002A000D8B0182AD8B4192AD8B41A2ACCD71A6ABE
:1002B000196A186A176A1A5227E1195225E1185269
:1002C00023E117501F0820E31D6A1E6A1F6A236A74
:1002D000246A296A16C02AF015C02BF014C02CF02D
:1002E00013C02DF0FBDE320E1B6E09DFD8901632E4
:1002F000153214321332010E1726D8B0182AD8B48A
:0C030000192AD8B41A2AD7D730D7030026
:020000040030CA
:0E00000027CC3E1E0087A1000FC00FE00F406E
:00000001FF
;PIC18F4550
;CRC=C5B9  CREATED="31-Aug-23 14:05"
