:10000000F3EF03F03C6A3C500708D8A019EF00F06A
:100010003BBE0EEF00F08D940FEF00F08D849694B0
:1000200096908D9096908D80D8903B363C2A03EF29
:1000300000F0120028C029F027C02AF029C03BF0A8
:10004000E1DF2AC03BF0DEDF1200286A276AF2DF18
:10005000286A276AEFDF286A276AECDF286A276A9E
:10006000E9DF95968C8695968C9695988C889598D0
:100070008C98959A8C8A959A8C9A959E8C8E959E42
:100080008C9E95948C8495948C9428682768D2DFF4
:1000900028682768CFDF959C8C8C959C8C9C5DEFA5
:1000A00000F0FF0E926E3C0E936EF10E946E000EF9
:1000B000966E956E956A8C6AC8D7F19E056A046A39
:1000C000C050C00B0209C06EC08EC280C150C00BB0
:1000D0000C09C16E95908C9012EF04F037C03BF084
:1000E00091DF38C03BF08EDF39C03BF08BDF3AC088
:1000F0003BF088DF95988C8895988C981200EA6A76
:10010000280EE96EEF500DE0060E016E006A002E1B
:10011000FED7012EFBD77B0E006E002EFED7EF2EF2
:10012000F3D712001A6A196A186A176A1A5220E17C
:1001300019521EE118521CE11750090819E33768DB
:10014000386A396A3A68CADF6E0E286ED8DF376AB5
:10015000386839683A6AC2DF6E0E286ED0DF010E49
:100160001726D8B0182AD8B4192AD8B41A2ADED734
:1001700013EF04F01A6A196A186A176A1A5231E101
:1001800019522FE118522DE1175020082AE3E00EF2
:10019000166E156A146A136A1750276E07E0D89016
:1001A0001632153214321332272EF9D7296A2A6AE9
:1001B0002B6A2F6A306A356A16C037F015C038F0DE
:1001C00014C039F013C03AF089DF320E286E97DF81
:1001D000010E1726D8B0182AD8B4192AD8B41A2A6A
:1001E000CDD714EF04F01A6A196A186A176A1A52FE
:1001F00031E119522FE118522DE1175020082AE35E
:10020000166A156A146A070E136E1750276E07E0F8
:10021000D8901336143615361636272EF9D7296A94
:100220002A6A2B6A2F6A306A356A16C037F015C001
:1002300038F014C039F013C03AF050DF320E286E97
:100240005EDF010E1726D8B0182AD8B4192AD8B400
:100250001A2ACDD715EF04F0166A156A146A136AC4
:100260001A6A196A186A176A1A5220E119521EE1AD
:1002700018521CE11750090819E313C037F013C0D6
:1002800038F013C039F013C03AF028DFC80E286EDA
:1002900036DF131E141E151E161E010E1726D8B0AB
:1002A000182AD8B4192AD8B41A2ADED716EF04F0BF
:1002B000266A256A246A236A1E6A1D6A1C6A1B6AEA
:1002C0001E525AE11D5258E11C5256E11B501F08A4
:1002D00053E3226A216A206A010E1F6E1EC01AF0C3
:1002E0001DC019F01CC018F01BC017F01A5233E1E2
:1002F000195231E118522FE117501F082CE31F50FB
:100300002310136E20502410146E21502510156EEA
:1003100022502610166E296A2A6A2B6A2F6A306AC2
:10032000356A16C037F015C038F014C039F013C064
:100330003AF0D4DE0A0E286EE2DED8901F36203660
:1003400021362236010E1726D8B0182AD8B4192A19
:10035000D8B41A2ACBD716C026F015C025F014C081
:1003600024F013C023F0010E1B26D8B01C2AD8B4E9
:100370001D2AD8B41E2AA4D717EF04F0166A1568F0
:1003800014681368296A2A6A2B6A2F6A306A356AE8
:1003900016C037F015C038F014C039F013C03AF069
:1003A0009DDE640E286EABDE266825682468FE0E8E
:1003B000236E26C016F025C015F024C014F023C00B
:1003C00013F01A6A196A186A176A1A52D8A471D0F7
:1003D0001952D8A46ED01852D8A46BD017501F0849
:1003E00068E3226A216A206A010E1F6E1750276E89
:1003F00007E0D8901F36203621362236272EF9D72F
:100400001E6A1D6A1C6A1B6A010E1724006E000E0C
:100410001820016E000E1920026E000E1A20036EC5
:100420001E50035C38E30BE11D50025C34E307E12E
:100430001C50015C30E303E100501B5C2CE2D890BF
:100440002232213220321F321F502310136E2050CF
:100450002410146E21502510156E22502610166E91
:10046000296A2A6A2B6A2F6A306A356A16C037F001
:1004700015C038F014C039F013C03AF02FDE0A0E60
:10048000286E3DDE010E1B26D8B01C2AD8B41D2ACA
:10049000D8B41E2AB9D7D890233624362536263626
:1004A000010E1726D8B0182AD8B4192AD8B41A2A97
:1004B0008CD718EF04F01A6A196A186A176A1A5268
:1004C00037E1195235E1185233E117501F0830E374
:1004D000296A2A6A2B6A2F6A306A356A16C037F091
:1004E00015C038F014C039F013C03AF0F7DD1E0E15
:1004F000286E05DED8901334286E1434296E153416
:100500002A6E16342B6E010E2824136E000E29203D
:10051000146E000E2A20156E000E2B20166E010E92
:100520001726D8B0182AD8B4192AD8B41A2AC7D787
:100530001A6A196A186A176A1A5227E1195225E1CC
:10054000185223E117501F0820E3296A2A6A2B6AF0
:100550002F6A306A356A16C037F015C038F014C0FB
:1005600039F013C03AF0BADD1E0E286EC8DDD890FF
:100570001336143615361636010E1726D8B0182A3B
:10058000D8B4192AD8B41A2AD7D719EF04F01A6A9E
:10059000196A186A176A1A5232E1195230E1185270
:1005A0002EE117501F082BE3296A2A6A2B6A2F6A4B
:1005B000306A356A16C037F015C038F014C039F00B
:1005C00013C03AF08BDD1E0E286E99DDD8901630E0
:1005D0002B6E15302A6E1430296E1330136E29C01D
:1005E00014F02AC015F0800E2B24166E010E17266B
:1005F000D8B0182AD8B4192AD8B41A2ACCD71A6A6B
:10060000196A186A176A1A5227E1195225E1185215
:1006100023E117501F0820E3296A2A6A2B6A2F6AF0
:10062000306A356A16C037F015C038F014C039F09A
:1006300013C03AF053DD1E0E286E61DDD8901632DD
:10064000153214321332010E1726D8B0182AD8B436
:10065000192AD8B41A2AD7D71AEF04F0166A156ADD
:10066000146A136A276A27500108D8A070D01A6A42
:10067000196A186A176A1A5231E119522FE1185291
:100680002DE117501F082AE32A6A2B6A2C6A306A68
:10069000316A366A16C037F015C038F014C039F028
:1006A00013C03AF01BDD166A156A146A010E136E48
:1006B0001750286E07E0D8901336143615361636C4
:1006C000282EF9D7320E286E1ADD010E1726D8B063
:1006D000182AD8B4192AD8B41A2ACDD71A6A196A8E
:1006E000186A176A1A5231E119522FE118522DE196
:1006F00017501F082AE32A6A2B6A2C6A306A316A6B
:10070000366A16C037F015C038F014C039F013C07F
:100710003AF0E4DC800E166E156A146A136A1750FC
:10072000286E07E0D8901632153214321332282E74
:10073000F9D7320E286EE3DC010E1726D8B0182A3E
:10074000D8B4192AD8B41A2ACDD7272A8CD71BEFA8
:1007500004F01A6A196A186A176AC80E276E1A52C4
:1007600040E119523EE118523CE11750020839E3CA
:10077000376A386A396A3A68B1DC27C028F0BFDCCA
:10078000376A386A39683A6AA9DC27C028F0B7DCCA
:10079000376A3868396A3A6AA1DC27C028F0AFDCCA
:1007A0003768386A396A3A6A99DC27C028F0A7DCCA
:1007B000376A3868396A3A6A91DC27C028F09FDCCA
:1007C000376A386A39683A6A89DC27C028F097DCCA
:1007D000010E1726D8B0182AD8B4192AD8B41A2A64
:1007E000BED71CEF04F0F86AD09EB886080EAF6E34
:1007F000020EB06EA60EAC6E900EAB6E066A076A65
:10080000086A096A126AC150C00B0F09C16E070E4F
:10081000B46E0A680B680C680D680E680F68106883
:1008200011683FD47FD4A6D4DED416D541D5A6D541
:0C08300042D6ADD613D78DD7F5D7030004
:020000040030CA
:0E00000027CC3E1E0087A1000FC00FE00F406E
:00000001FF
;PIC18F4550
;CRC=FA9D  CREATED="22-Sep-23 09:44"
