:1000000094EF00F0296A29500708D8A019EF00F0F2
:1000100028BE0EEF00F08D940FEF00F08D849694C3
:1000200096908D9096908D80D8902836292A03EF4F
:1000300000F0120020C021F01FC022F021C028F0E3
:10004000E1DF22C028F0DEDF1200206A1F6AF2DF43
:10005000206A1F6AEFDF206A1F6AECDF206A1F6ACE
:10006000E9DF95968C8695968C9695988C889598D0
:100070008C98959A8C8A959A8C9A959E8C8E959E42
:100080008C9E95948C8495948C9420681F68D2DF04
:1000900020681F68CFDF959C8C8C959C8C9C5DEFB5
:1000A00000F0FF0E926E3C0E936EF10E946E000EF9
:1000B000966E956E956A8C6AC8D7F19E056A046A39
:1000C000C050C00B0209C06EC08EC280C150C00BB0
:1000D0000C09C16E95908C90B3EF00F024C028F00D
:1000E00091DF25C028F08EDF26C028F08BDF27C0E7
:1000F00028F088DF95988C8895988C98E2EF00F02E
:10010000EA6A1F0EE96EEF500DE0060E016E006AFE
:10011000002EFED7012EFBD77B0E006E002EFED7E1
:10012000EF2EF3D7E5EF00F0F86AD09EB886080E00
:10013000AF6E020EB06EA60EAC6E900EAB6E066A7F
:10014000076A086A096A126AC150C00B0F09C16EBA
:10015000070EB46E0A680B680C680D680E680F68AD
:10016000106811689ED7166A156A146A136A1E6AA7
:100170001D6A186A176A185237E117500F0834E3DE
:100180001C6A010E1B6E18C01AF017C019F01A5223
:1001900023E119500F0820E31B501D10136E1C5053
:1001A0001E10146E156A166A14C020F015C021F0D6
:1001B00016C022F0236A246A256A14C026F013C0F0
:1001C00027F08CD7320E1F6E9BD7D8901B361C366B
:1001D000192AD8B41A2ADBD714C01EF013C01DF098
:0C01E000172AD8B4182AC7D7C2D70300CA
:020000040030CA
:0E00000027CC3E1E0087A1000FC00FE00F406E
:00000001FF
;PIC18F4550
;CRC=0D3F  CREATED="31-Aug-23 14:54"
