:10000000A2EF00F0316A31500708D8A019EF00F0D4
:1000100030BE0EEF00F08D940FEF00F08D849694BB
:1000200096908D9096908D80D8903036312A03EF3F
:1000300000F0120028C029F027C02AF029C030F0B3
:10004000E1DF2AC030F0DEDF1200286A276AF2DF23
:10005000286A276AEFDF286A276AECDF286A276A9E
:10006000E9DF95968C8695968C9695988C889598D0
:100070008C98959A8C8A959A8C9A959E8C8E959E42
:100080008C9E95948C8495948C9428682768D2DFF4
:1000900028682768CFDF959C8C8C959C8C9C5DEFA5
:1000A00000F0FF0E926E3C0E936EF10E946E000EF9
:1000B000966E956E956A8C6AC8D7F19E056A046A39
:1000C000C050C00B0209C06EC08EC280C150C00BB0
:1000D0000C09C16E95908C90C1EF00F02CC030F0EF
:1000E00091DF2DC030F08EDF2EC030F08BDF2FC0BF
:1000F00030F088DF95988C8895988C988EEF00F07A
:1001000014C028F015C029F016C02AF02B6A2C6AFA
:100110002D6A14C02EF013C02FF0E0D71200EA6A47
:10012000270EE96EEF500DE0060E016E006A002EFC
:10013000FED7012EFBD77B0E006E002EFED7EF2ED2
:10014000F3D71200F86AD09EB886080EAF6E020E82
:10015000B06EA60EAC6E900EAB6E066A076A086AA9
:10016000096A126AC150C00B0F09C16E070EB46E46
:100170000A680B680C680D680E680F6810681168D3
:1001800090D7166A156A146A136A166A156A146893
:100190001368B6DF640E276EC2DF266A256A2468FC
:1001A000FE0E236E26C016F025C015F024C014F0F4
:1001B00023C013F01A6A196A186A176A1A5261E1A1
:1001C00019525FE118525DE117500F085AE3226A95
:1001D000216A206A010E1F6E1750276E07E0D89023
:1001E0001F36203621362236272EF9D71E6A1D6A81
:1001F0001C6A1B6A010E1724006E000E1820016E87
:10020000000E1920026E000E1A20036E1E50035CB1
:100210002AE30BE11D50025C26E307E11C50015C60
:1002200022E303E100501B5C1EE2D890223221320F
:1002300020321F321F502310136E20502410146ED2
:1002400021502510156E22502610166E59DF640EAF
:10025000276E65DF010E1B26D8B01C2AD8B41D2AD4
:10026000D8B41E2AC7D7D89023362436253626364A
:10027000010E1726D8B0182AD8B4192AD8B41A2AC9
:060280009DD783D70300A7
:020000040030CA
:0E00000027CC3E1E0087A1000FC00FE00F406E
:00000001FF
;PIC18F4550
;CRC=C380  CREATED="31-Aug-23 15:04"
