:100000002FEF05F0F76A140FF66E000EF7220900C5
:10001000F55012003F7FBFFF426A425007080EE3CF
:1000200041BE02D08D9401D08D84969496908D908F
:1000300096908D80D8904136422AEFD712002EC07C
:100040002FF02DC030F02FC041F0E6DF30C041F07E
:10005000E3DF12002E6A2D6AF2DF2E6A2D6AEFDFCF
:100060002E6A2D6AECDF2E6A2D6AE9DF95968C8662
:1000700095968C9695988C8895988C98959A8C8A5C
:10008000959A8C9A959E8C8E959E8C9E95948C8438
:1000900095948C942E682D68D2DF2E682D68CFDF62
:1000A000959C8C8C959C8C9C62EF00F0FF0E926E60
:1000B0003C0E936EF10E946E000E966E956E956AE0
:1000C0008C6AC8D7F19E056A046AC050C00B020949
:1000D000C06EC08EC280C150C00B0C09C16E95901D
:1000E0008C9053EF05F0006A016A3150D89032B01D
:1000F00000260032013232B200260032013232B420
:1001000000260032013232B600260032013232B807
:1001100000260032013232BA00260032013232BCEF
:1001200000260032013232BE002600320132CEEF0C
:1001300000F02F682FC02EF0306A30BE03D0305050
:10014000030824E3036A3050006EE8BE03065ADF5A
:10015000936A8A6E938481B404D0030E2F6E16D0F6
:1001600013D0938681B604D0020E2F6E0FD00CD020
:10017000938881B804D0010E2F6E08D005D0938AE1
:1001800081BA02D02F6A02D0302AD7D72F3C01D0B3
:1001900008D030C031F0040E326EA5D72F500124A4
:1001A0002E6E2EC001F01200EA6A2E0EE96EEF509C
:1001B0000DE0060E016E006A002EFED7012EFBD761
:1001C0007B0E006E002EFED7EF2EF3D71200B1DFAC
:1001D00001C013F0133C01D00CD0010E2E6EE4DFF1
:1001E000A8DF01C013F0A5DF01C014F01350145CA8
:1001F000FAE013C001F0FEEF00F0E9D7186A01C081
:1002000017F0175204E1185202E1166A156A172C0A
:1002100005D0185203E1166A010E156E1750020838
:1002200005E1185203E1166A020E156E1750030815
:1002300005E1185203E1166A030E156E1750040803
:1002400005E1185203E1166A040E156E17500508F1
:1002500005E1185203E1166A050E156E17500608DF
:1002600005E1185203E1166A060E156E17500708CD
:1002700005E1185203E1166A070E156E17500808BB
:1002800005E1185203E1166A080E156E17500908A9
:1002900005E1185203E1166A090E156E12003DC001
:1002A00041F0BADE3EC041F0B7DE3FC041F0B4DEFF
:1002B00040C041F0B1DE95988C8895988C981200DA
:1002C000206A1F6A1E6A1D6A205227E11F5225E11B
:1002D0001E5223E11D50090820E38FDF3D683E6A6E
:1002E0003F6A4068DCDF460E2E6E5EDF86DF3D6AC9
:1002F0003E683F68406AD3DF460E2E6E55DF010E22
:100300001D26D8B01E2AD8B41F2AD8B4202A1552C8
:1003100002E11652D8A401D0D7D79EEF05F0206A8B
:100320001F6A1E6A1D6A205237E11F5235E11E52B4
:1003300033E11D50200830E360DFE00E1C6E1B6AC5
:100340001A6A196A1D502D6E07E0D8901C321B32B4
:100350001A3219322D2EF9D72F6A306A316A356A6E
:10036000366A3B6A1CC03DF01BC03EF01AC03FF02D
:1003700019C040F094DF320E2E6E16DF152C02D01D
:100380001652D8A409D0010E1D26D8B01E2AD8B402
:100390001F2AD8B4202AC7D79EEF05F0206A1F6A0B
:1003A0001E6A1D6A205238E11F5236E11E5234E1A6
:1003B0001D50200831E321DF1C6A1B6A1A6A070EF0
:1003C000196E1D502D6E07E0D89019361A361B365F
:1003D0001C362D2EF9D72F6A306A316A356A366A93
:1003E0003B6A1CC03DF01BC03EF01AC03FF019C074
:1003F00040F055DF320E2E6ED7DE1550020802E1B6
:100400001652D8A409D0010E1D26D8B01E2AD8B481
:100410001F2AD8B4202AC6D79EEF05F01C6A1B6A93
:100420001A6A196A206A1F6A1E6A1D6A205227E129
:100430001F5225E11E5223E11D50090820E3DDDE95
:1004400019C03DF019C03EF019C03FF019C040F08E
:1004500026DFC80E2E6EA8DE191E1A1E1B1E1C1EBD
:10046000010E1D26D8B01E2AD8B41F2AD8B4202ABF
:100470001550030802E11652D8A401D0D7D79EEF39
:1004800005F02C6A2B6A2A6A296A246A236A226A7E
:10049000216A245261E123525FE122525DE1215041
:1004A0001F085AE3286A276A266A010E256E24C0AF
:1004B00020F023C01FF022C01EF021C01DF02052EA
:1004C0003AE11F5238E11E5236E11D501F0833E356
:1004D00094DE25502910196E26502A101A6E2750C6
:1004E0002B101B6E28502C101C6E2F6A306A316A3C
:1004F000356A366A3B6A1CC03DF01BC03EF01AC02C
:100500003FF019C040F0CBDE0A0E2E6E4DDED890C3
:1005100025362636273628361550040802E11652AD
:10052000D8A409D0010E1D26D8B01E2AD8B41F2A7F
:10053000D8B4202AC4D71CC02CF01BC02BF01AC082
:100540002AF019C029F0010E2126D8B0222AD8B4E9
:10055000232AD8B4242A9DD79EEF05F01C6A1B6875
:100560001A6819682F6A306A316A356A366A3B6AD6
:100570001CC03DF01BC03EF01AC03FF019C040F057
:100580008EDE640E2E6E10DE2C682B682A68FE0E3E
:10059000296E2CC01CF02BC01BF02AC01AF029C0F9
:1005A00019F0206A1F6A1E6A1D6A2052D8A479D0E9
:1005B0001F52D8A476D01E52D8A473D01D501F0845
:1005C000D8A06FD0286A276A266A010E256E1D50B2
:1005D0002D6E07E0D89025362636273628362D2E64
:1005E000F9D7246A236A226A216A010E1D24006E4B
:1005F000000E1E20016E000E1F20026E000E202035
:10060000036E2450035C3FE30BE12350025C3BE3A9
:1006100007E12250015C37E303E10050215C33E243
:10062000ECDDD89028322732263225322550291089
:10063000196E26502A101A6E27502B101B6E285048
:100640002C101C6E2F6A306A316A356A366A3B6A32
:100650001CC03DF01BC03EF01AC03FF019C040F076
:100660001EDE0A0E2E6EA0DD1550050802E11652A0
:10067000D8A409D0010E2126D8B0222AD8B4232A22
:10068000D8B4242AB2D7D89029362A362B362C361D
:10069000010E1D26D8B01E2AD8B41F2AD8B4202A8D
:1006A00084D79EEF05F0206A1F6A1E6A1D6A2052D9
:1006B0003EE11F523CE11E523AE11D501F0837E354
:1006C0009CDD2F6A306A316A356A366A3B6A1CC023
:1006D0003DF01BC03EF01AC03FF019C040F0DFDD16
:1006E0001E0E2E6E61DDD89019342E6E1A342F6EC8
:1006F0001B34306E1C34316E010E2E24196E000E28
:100700002F201A6E000E30201B6E000E31201C6E42
:100710001550060802E11652D8A409D0010E1D2674
:10072000D8B01E2AD8B41F2AD8B4202AC0D7206A2D
:100730001F6A1E6A1D6A20522DE11F522BE11E52B4
:1007400029E11D501F0826E32F6A306A316A356A95
:10075000366A3B6A1CC03DF01BC03EF01AC03FF039
:1007600019C040F09CDD1E0E2E6E1EDDD89019368D
:100770001A361B361C361550060802E11652D8A44C
:1007800009D0010E1D26D8B01E2AD8B41F2AD8B40D
:10079000202AD1D79EEF05F0206A1F6A1E6A1D6AC3
:1007A000205239E11F5237E11E5235E11D501F081A
:1007B00032E323DD2F6A306A316A356A366A3B6A72
:1007C0001CC03DF01BC03EF01AC03FF019C040F005
:1007D00066DD1E0E2E6EE8DCD8901C30316E1B30AC
:1007E000306E1A302F6E1930196E2FC01AF030C0CB
:1007F0001BF0800E31241C6E1550070802E11652C2
:10080000D8A409D0010E1D26D8B01E2AD8B41F2A9C
:10081000D8B4202AC5D7206A1F6A1E6A1D6A2052D2
:100820002EE11F522CE11E522AE11D501F0827E322
:10083000E4DC2F6A306A316A356A366A3B6A1CC06A
:100840003DF01BC03EF01AC03FF019C040F027DD5C
:100850001E0E2E6EA9DCD8901C321B321A321932B1
:100860001550070802E11652D8A409D0010E1D2622
:10087000D8B01E2AD8B41F2AD8B4202AD0D79EEFC9
:1008800005F01C6A1B6A1A6A196A2D6A2D50010844
:10089000D8A07ED0206A1F6A1E6A1D6A205238E1E5
:1008A0001F5236E11E5234E11D501F0831E3A5DC12
:1008B000306A316A326A366A376A3C6A1CC03DF077
:1008C0001BC03EF01AC03FF019C040F0E8DC1C6AC3
:1008D0001B6A1A6A010E196E1D502E6E07E0D89021
:1008E00019361A361B361C362E2EF9D7320E2E6EBE
:1008F0005BDC1550080802E11652D8A409D0010E9D
:100900001D26D8B01E2AD8B41F2AD8B4202AC6D78C
:10091000206A1F6A1E6A1D6A205238E11F5236E1A2
:100920001E5234E11D501F0831E367DC306A316A22
:10093000326A366A376A3C6A1CC03DF01BC03EF022
:100940001AC03FF019C040F0AADC800E1C6E1B6A72
:100950001A6A196A1D502E6E07E0D8901C321B329D
:100960001A3219322E2EF9D7320E2E6E1DDC15508A
:10097000080802E11652D8A409D0010E1D26D8B0ED
:100980001E2AD8B41F2AD8B4202AC6D72D2A7ED72B
:100990009EEF05F0206A1F6A1E6A1D6AC80E2D6E42
:1009A00020525BE11F5259E11E5257E11D500208CF
:1009B00054E33D6A3E6A3F6A406871DC2DC02EF008
:1009C000D4EC00F01ADC3D6A3E6A3F68406A67DC9E
:1009D0002DC02EF0D4EC00F010DC3D6A3E683F6A7A
:1009E000406A5DDC2DC02EF0D4EC00F006DC155022
:1009F000090802E11652D8A430D03D683E6A3F6A29
:100A0000406A4DDC2DC02EF0D4EC00F0E7EC00F095
:100A10003D6A3E683F6A406A42DC2DC02EF0D4EC4D
:100A200000F0E7EC00F03D6A3E6A3F68406A37DC60
:100A30002DC02EF0D4EC00F0E7EC00F015500908C2
:100A400002E11652D8A409D0010E1D26D8B01E2AE4
:100A5000D8B41F2AD8B4202AA3D79EEF05F0F86A8D
:100A6000D09EB886080EAF6E020EB06EA60EAC6EAB
:100A7000900EAB6E066A076A086A096A126A136A00
:100A8000146A166A156AC150C00B0F09C16E070EB1
:100A9000B46E0A680B680C680D680E680F68106801
:100AA000116856EF00F03C0E936E15C000F0165022
:100AB000036E02E100522EE0035003E1010E005CE0
:100AC0002CE0035003E1020E005C29E0035003E137
:100AD000030E005C26E0035003E1040E005C23E0FB
:100AE000035003E1050E005C20E0035003E1060E15
:100AF000005C1DE0035003E1070E005C1AE00350A8
:100B000003E1080E005C17E0035003E1090E005CEE
:100B100014E014D060EF01F011D001D40FD03ED416
:100B20000DD07CD40BD0ADD409D018D507D0BBD50F
:100B300005D032D603D0A5D601D02CD7B6D7030026
:020000040030CA
:0E00000027CC3E1E0087A1000FC00FE00F406E
:00000001FF
;PIC18F4550
;CRC=B42C  CREATED="14-Sep-23 14:50"
