:1000000010EF01F0F76A140FF66E000EF7220900E8
:10001000F55012003F7FBFFF226A225007080EE30F
:1000200021BE02D08D9401D08D84969496908D90AF
:1000300096908D80D8902136222AEFD712001CC0CE
:100040001DF01BC01EF01DC021F0E6DF1EC021F018
:10005000E3DF12001C6A1B6AF2DF1C6A1B6AEFDF17
:100060001C6A1B6AECDF1C6A1B6AE9DF95968C86AA
:1000700095968C9695988C8895988C98959A8C8A5C
:10008000959A8C9A959E8C8E959E8C9E95948C8438
:1000900095948C941C681B68D2DF1C681B68CFDFAA
:1000A000959C8C8C959C8C9C62EF00F0FF0E926E60
:1000B0003C0E936EF10E946E000E966E956E956AE0
:1000C0008C6AC8D7F19E056A046AC050C00B020949
:1000D000C06EC08EC280C150C00B0C09C16E95901D
:1000E0008C9031EF01F0006A016A1E50D8901FB069
:1000F0000026003201321FB20026003201321FB446
:100100000026003201321FB60026003201321FB82D
:100110000026003201321FBA0026003201321FBC15
:100120000026003201321FBE002600320132CEEF1F
:1001300000F01C681CC01BF01D6A1DBE03D01D50C2
:10014000030824E3036A1D50006EE8BE03065ADF6D
:10015000936A8A6E938481B404D0030E1C6E16D009
:1001600013D0938681B604D0020E1C6E0FD00CD033
:10017000938881B804D0010E1C6E08D005D0938AF4
:1001800081BA02D01C6A02D01D2AD7D71C3C01D0EC
:1001900008D01DC01EF0040E1F6EA5D71C500124F0
:1001A0001B6E1BC001F01200EA6A1B0EE96EEF50D5
:1001B0000DE0060E016E006A002EFED7012EFBD761
:1001C0007B0E006E002EFED7EF2EF3D7F1EF00F07E
:1001D000B0DF01C013F0133C01D00CD0010E1B6E38
:1001E000E3D7A7DF01C013F0A4DF01C014F0135060
:1001F000145CFAE013C001F036EF01F01DC021F0ED
:100200000BDF1EC021F008DF1FC021F005DF20C07A
:1002100021F002DF95988C8895988C9856EF01F024
:10022000F86AD09EB886080EAF6E020EB06EA60EAB
:10023000AC6E900EAB6E066A076A086A096A126AAB
:10024000136A146AC150C00B0F09C16E070EB46E59
:100250000A680B680C680D680E680F6810681168F2
:1002600025D73C0E936E166A156AB2D71A6A01C07A
:1002700019F0193C02D01A5219E0186A010E176ED3
:100280001950006E05E0D89017361836002EFBD7AF
:100290001750151A1850161A16C01BF01C6A1D6A42
:1002A0001E6A16C01FF015C020F0A8D7DED70300C5
:020000040030CA
:0E00000027CC3E1E0087A1000FC00FE00F406E
:00000001FF
;PIC18F4550
;CRC=E232  CREATED="14-Sep-23 14:17"
