:100000000FEF01F0F76A140FF66E000EF7220900E9
:10001000F55012003F7FBFFF1F6A1F5007080EE315
:100020001EBE02D08D9401D08D84969496908D90B2
:1000300096908D80D8901E361F2AEFD712001BC0D5
:100040001CF01AC01DF01CC01EF0E6DF1DC01EF023
:10005000E3DF12001B6A1A6AF2DF1B6A1A6AEFDF1B
:100060001B6A1A6AECDF1B6A1A6AE9DF95968C86AE
:1000700095968C9695988C8895988C98959A8C8A5C
:10008000959A8C9A959E8C8E959E8C9E95948C8438
:1000900095948C941B681A68D2DF1B681A68CFDFAE
:1000A000959C8C8C959C8C9C62EF00F0FF0E926E60
:1000B0003C0E936EF10E946E000E966E956E956AE0
:1000C0008C6AC8D7F19E056A046AC050C00B020949
:1000D000C06EC08EC280C150C00B0C09C16E95901D
:1000E0008C9030EF01F0006A016A1D50D8901EB06C
:1000F0000026003201321EB20026003201321EB448
:100100000026003201321EB60026003201321EB82F
:100110000026003201321EBA0026003201321EBC17
:100120000026003201321EBE002600320132CEEF20
:1001300000F01B681BC01AF01C6A1CBE03D01C50C8
:10014000030824E3036A1C50006EE8BE03065ADF6E
:10015000936A8A6E938481B404D0030E1B6E16D00A
:1001600013D0938681B604D0020E1B6E0FD00CD034
:10017000938881B804D0010E1B6E08D005D0938AF5
:1001800081BA02D01B6A02D01C2AD7D71B3C01D0EF
:1001900008D01CC01DF0040E1E6EA5D71B500124F4
:1001A0001A6E1AC001F01200EA6A1A0EE96EEF50D8
:1001B0000DE0060E016E006A002EFED7012EFBD761
:1001C0007B0E006E002EFED7EF2EF3D7F1EF00F07E
:1001D000B0DF01C013F0133C01D00CD0010E1A6E39
:1001E000E3D7A7DF01C013F0A4DF01C014F0135060
:1001F000145CFAE013C001F034EF01F01AC01EF0F5
:100200000BDF1BC01EF008DF1CC01EF005DF1DC089
:100210001EF002DF95988C8895988C981200F86AE9
:10022000D09EB886080EAF6E020EB06EA60EAC6EF3
:10023000900EAB6E066A076A086A096A126A136A48
:10024000146AC150C00B0F09C16E070EB46E0A6864
:100250000B680C680D680E680F681068116826D767
:100260003C0E936E156AB4D7196A01C018F0183C99
:1002700002D019523FE019521DE1185007081AE345
:10028000010E166E16C01AF0036A16C002F018505E
:10029000006E05E0D89002360336002EFBD70250E0
:1002A000166E165015121A6A1B6A1C6A15C01DF0CC
:1002B000A5DF20D0010E176E080E185C1A6E000E16
:1002C00019581B6E17C01CF0036A17C002F01A50B1
:1002D000006E05E0D89002360336002EFBD70250A0
:1002E000176E171E175015161A6A1B6A1C6A15C05E
:1002F0001DF084DF1A6A1B6A1C6A15C01DF07EDFC0
:04030000B2D703006D
:020000040030CA
:0E00000027CC3E1E0087A1000FC00FE00F406E
:00000001FF
;PIC18F4550
;CRC=C8D9  CREATED="14-Sep-23 14:00"
